:020000042001D9
:10780000554D4F440001010002000000000000003F
:107810004B7801209F780120477801204378012090
:1078200005790120000000000000000000000000B9
:107830000000000000000000000000000000000048
:1078400070477047704770477047104B104A2DE9DA
:10785000F041884607460021934202D003F8011FF9
:10786000FAE70C4B0C4CE41AA41000251E46A54266
:1078700005D056F8253003B198470135F7E7414662
:10788000384600F00BF8BDE8F08100BF67790120B1
:107890006779012040780120407801207047184B1B
:1078A00010B5D3ED006A5C68029BB2EE046A5A0020
:1078B000F7EE005A0023B6EE005AF7EE084A93425C
:1078C0001CD0F0EE657AE6EE867AB0EC017A67EECF
:1078D000877A032C10D8DFE804F00C0C0C0227EE9A
:1078E000A77A27EE277A25EE477AA7EEA47AF0EE5C
:1078F000477AC1ED007A04310133E0E710BD00BFE3
:107900006079012007EE901AFAEEE07A10B10128B2
:1079100004D07047114BC3ED007A7047B5EE007A82
:10792000F4EEC77AF1EE10FA0C4B02D500225A6041
:107930007047B6EE007AF4EEC77AF1EE10FA01D590
:1079400058607047B6EE087AF4EEC77AF1EE10FA96
:107950004CBF022203225A60704700BF60790120A9
:087960000000003F01000000DF
:040000052001784B13
:00000001FF
